{
  "contractName": "VotingContract",
  "abi": [
    {
      "inputs": [],
      "stateMutability": "nonpayable",
      "type": "constructor"
    },
    {
      "anonymous": false,
      "inputs": [
        {
          "indexed": true,
          "internalType": "address",
          "name": "voter",
          "type": "address"
        },
        {
          "indexed": false,
          "internalType": "string",
          "name": "candidate",
          "type": "string"
        }
      ],
      "name": "Voted",
      "type": "event"
    },
    {
      "inputs": [
        {
          "internalType": "address",
          "name": "",
          "type": "address"
        }
      ],
      "name": "hasVoted",
      "outputs": [
        {
          "internalType": "bool",
          "name": "",
          "type": "bool"
        }
      ],
      "stateMutability": "view",
      "type": "function",
      "constant": true
    },
    {
      "inputs": [],
      "name": "owner",
      "outputs": [
        {
          "internalType": "address",
          "name": "",
          "type": "address"
        }
      ],
      "stateMutability": "view",
      "type": "function",
      "constant": true
    },
    {
      "inputs": [
        {
          "internalType": "string",
          "name": "",
          "type": "string"
        }
      ],
      "name": "votesCount",
      "outputs": [
        {
          "internalType": "uint256",
          "name": "",
          "type": "uint256"
        }
      ],
      "stateMutability": "view",
      "type": "function",
      "constant": true
    },
    {
      "inputs": [
        {
          "internalType": "string",
          "name": "candidate",
          "type": "string"
        }
      ],
      "name": "vote",
      "outputs": [],
      "stateMutability": "nonpayable",
      "type": "function"
    },
    {
      "inputs": [
        {
          "internalType": "string",
          "name": "candidate",
          "type": "string"
        }
      ],
      "name": "getVotesCount",
      "outputs": [
        {
          "internalType": "uint256",
          "name": "",
          "type": "uint256"
        }
      ],
      "stateMutability": "view",
      "type": "function",
      "constant": true
    },
    {
      "inputs": [],
      "name": "isOwner",
      "outputs": [
        {
          "internalType": "bool",
          "name": "",
          "type": "bool"
        }
      ],
      "stateMutability": "view",
      "type": "function",
      "constant": true
    }
  ],
  "bytecode": "0x608060405234801561001057600080fd5b50336000806101000a81548173ffffffffffffffffffffffffffffffffffffffff021916908373ffffffffffffffffffffffffffffffffffffffff160217905550610828806100606000396000f3fe608060405234801561001057600080fd5b50600436106100625760003560e01c806309eef43e1461006757806313f12ec7146100975780638da5cb5b146100c75780638f32d59b146100e5578063ea44579414610103578063fc36e15b14610133575b600080fd5b610081600480360381019061007c9190610426565b61014f565b60405161008e9190610599565b60405180910390f35b6100b160048036038101906100ac919061044f565b61016f565b6040516100be91906105f6565b60405180910390f35b6100cf610197565b6040516100dc919061057e565b60405180910390f35b6100ed6101bb565b6040516100fa9190610599565b60405180910390f35b61011d6004803603810190610118919061044f565b610212565b60405161012a91906105f6565b60405180910390f35b61014d6004803603810190610148919061044f565b610240565b005b60016020528060005260406000206000915054906101000a900460ff1681565b60006002826040516101819190610567565b9081526020016040518091039020549050919050565b60008054906101000a900473ffffffffffffffffffffffffffffffffffffffff1681565b60008060009054906101000a900473ffffffffffffffffffffffffffffffffffffffff1673ffffffffffffffffffffffffffffffffffffffff163373ffffffffffffffffffffffffffffffffffffffff1614905090565b6002818051602081018201805184825260208301602085012081835280955050505050506000915090505481565b600160003373ffffffffffffffffffffffffffffffffffffffff1673ffffffffffffffffffffffffffffffffffffffff16815260200190815260200160002060009054906101000a900460ff16156102cd576040517f08c379a00000000000000000000000000000000000000000000000000000000081526004016102c4906105d6565b60405180910390fd5b6002816040516102dd9190610567565b908152602001604051809103902060008154809291906102fc90610723565b919050555060018060003373ffffffffffffffffffffffffffffffffffffffff1673ffffffffffffffffffffffffffffffffffffffff16815260200190815260200160002060006101000a81548160ff0219169083151502179055503373ffffffffffffffffffffffffffffffffffffffff167fcb6783276e8a4347387036bbfea000268f0a4b1f8c46ac79980609f2af8d2acd8260405161039e91906105b4565b60405180910390a250565b60006103bc6103b784610642565b610611565b9050828152602081018484840111156103d457600080fd5b6103df8482856106e1565b509392505050565b6000813590506103f6816107db565b92915050565b600082601f83011261040d57600080fd5b813561041d8482602086016103a9565b91505092915050565b60006020828403121561043857600080fd5b6000610446848285016103e7565b91505092915050565b60006020828403121561046157600080fd5b600082013567ffffffffffffffff81111561047b57600080fd5b610487848285016103fc565b91505092915050565b61049981610699565b82525050565b6104a8816106ab565b82525050565b60006104b982610672565b6104c3818561067d565b93506104d38185602086016106f0565b6104dc816107ca565b840191505092915050565b60006104f282610672565b6104fc818561068e565b935061050c8185602086016106f0565b80840191505092915050565b600061052560168361067d565b91507f596f75206861766520616c726561647920766f746564000000000000000000006000830152602082019050919050565b610561816106d7565b82525050565b600061057382846104e7565b915081905092915050565b60006020820190506105936000830184610490565b92915050565b60006020820190506105ae600083018461049f565b92915050565b600060208201905081810360008301526105ce81846104ae565b905092915050565b600060208201905081810360008301526105ef81610518565b9050919050565b600060208201905061060b6000830184610558565b92915050565b6000604051905081810181811067ffffffffffffffff821117156106385761063761079b565b5b8060405250919050565b600067ffffffffffffffff82111561065d5761065c61079b565b5b601f19601f8301169050602081019050919050565b600081519050919050565b600082825260208201905092915050565b600081905092915050565b60006106a4826106b7565b9050919050565b60008115159050919050565b600073ffffffffffffffffffffffffffffffffffffffff82169050919050565b6000819050919050565b82818337600083830152505050565b60005b8381101561070e5780820151818401526020810190506106f3565b8381111561071d576000848401525b50505050565b600061072e826106d7565b91507fffffffffffffffffffffffffffffffffffffffffffffffffffffffffffffffff8214156107615761076061076c565b5b600182019050919050565b7f4e487b7100000000000000000000000000000000000000000000000000000000600052601160045260246000fd5b7f4e487b7100000000000000000000000000000000000000000000000000000000600052604160045260246000fd5b6000601f19601f8301169050919050565b6107e481610699565b81146107ef57600080fd5b5056fea2646970667358221220345e50e6c4a9fe1c31b9545b8aa8a3dc4e24e126cbb81d8934ea8efe9e96fcb464736f6c63430008000033",
  "immutableReferences": {},
  "source": "// SPDX-License-Identifier: MIT\r\npragma solidity ^0.8.0;\r\n\r\ncontract VotingContract {\r\n    address public owner;\r\n    mapping(address => bool) public hasVoted;\r\n    mapping(string => uint256) public votesCount;\r\n\r\n    event Voted(address indexed voter, string candidate);\r\n\r\n    modifier onlyOwner() {\r\n        require(msg.sender == owner, \"Only the owner can perform this action\");\r\n        _;\r\n    }\r\n\r\n    constructor() {\r\n        owner = msg.sender;\r\n    }\r\n\r\n    function vote(string memory candidate) external {\r\n        require(!hasVoted[msg.sender], \"You have already voted\");\r\n        votesCount[candidate]++;\r\n        hasVoted[msg.sender] = true;\r\n        emit Voted(msg.sender, candidate);\r\n    }\r\n\r\n    function getVotesCount(string memory candidate) external view returns (uint256) {\r\n        return votesCount[candidate];\r\n    }\r\n\r\n    function isOwner() external view returns (bool) {\r\n        return msg.sender == owner;\r\n    }\r\n}\r\n",
  "sourcePath": "D:\\Blockchain voting system\\JS\\contracts\\VotingContract.sol",
  "compiler": {
    "name": "solc",
    "version": "0.8.0+commit.c7dfd78e.Emscripten.clang"
  },
  "schemaVersion": "3.4.16",
  "updatedAt": "2024-01-22T18:59:02.017Z",
  "networkType": "ethereum",
  "devdoc": {
    "kind": "dev",
    "methods": {},
    "version": 1
  },
  "userdoc": {
    "kind": "user",
    "methods": {},
    "version": 1
  }
}